:100000000C9434000C9451000C9451000C94C201D7
:100010000C9451000C9451000C9451000C9451001C
:100020000C9451000C9451000C9451000C9451000C
:100030000C9451000C9451000C9451000C945100FC
:100040000C9451000C9451000C9451000C945100EC
:100050000C9451000C9440020C9451000C945100EB
:100060000C9451000C94510011241FBECFEFD8E026
:10007000DEBFCDBF11E0A0E0B1E0EAE0FBE002C0EE
:1000800005900D92AE38B107D9F721E0AEE8B1E0A6
:1000900001C01D92A639B207E1F70E9451050C94E8
:1000A00083050C94000027B18095282327B998B1C7
:1000B000982398B980E480937C008FE880937A003D
:1000C0000895803108F080E090917C00907F892B2A
:1000D00080937C00089580917C008F700895EAE7FA
:1000E000F0E08081806480830895F999FECF0895BF
:1000F0000F931F93CF938C01C62F0E94750012BDE2
:1001000001BDC0BDFA9AF99ACF911F910F91089540
:10011000CF93DF93EC010E947500D2BDC1BDF89A68
:1001200080B5DF91CF910895EF92FF920F931F93C7
:10013000CF93DF937C01EB018B01040F111DC017DE
:10014000D10739F4DF91CF911F910F91FF90EF907C
:1001500008956991C7010E9478008FEFE81AF80AA4
:10016000EECFEF92FF920F931F93CF93DF93EC01AB
:100170008B017C01E40EF11CCE15DF0539F4DF9113
:10018000CF911F910F91FF90EF900895CE010E94A3
:100190008800F80181938F012196EECF87B18F609F
:1001A00087B988B18F6088B984B18F7084B985B1FF
:1001B000806F85B908952031323341343536423766
:1001C0003839432A30234400F1E0E6EBE80FF11D13
:1001D00084910895772791E088B18F60892788B945
:1001E00000000000000083B1809582958F7021F49B
:1001F0007395990F9F7081F7882379F00F9294E09F
:10020000799F702D0F90112491E07395A82FA92349
:1002100021F4990F9F7009F0F8CFA8B1AF60A8B989
:100220008111872F0895882799278395F1F7939552
:10023000E1F7089546D08078E9F7089587B18F6097
:1002400087B98AB187608AB988B1807F88B98BB154
:10025000887F8BB9E8DF88B1807F826088B9589A3F
:100260000000000000005898E5DF88E204D0E2DFDB
:100270008CE001D008958F93DDDF8F9197B19F605F
:1002800097B959985A9808C08F93D4DF8F9197B136
:100290009F6097B959985A9A8F9382958F7098B1A9
:1002A000907F892B88B9589A000000000000589868
:1002B0008F91892B88B9589A000000000000589847
:1002C000089587B1807F87B9599A5A9805C087B138
:1002D000807F87B9599A5A9A589A00000000000006
:1002E00086B158988F70829500000000589A0000DF
:1002F000000096B158989F70892B0895DC018D916C
:10030000882311F0C1DFFBCF089581E0B4DF0895A9
:100310008068B1DF08958064AEDF089582706170F7
:10032000862B8460A8DF0895847062704170862BEC
:10033000842B8860A0DF08958AB180668AB98BB16A
:100340008F798BB983EA84BD17BC18BC85E085BD65
:100350000895539A5B98239A2B9883EA8093B00070
:100360001092B3001092B40087E08093B10008951A
:1003700087BD089588BD08958093B3000895809344
:10038000B40008951F920F920FB60F9211242F936D
:100390003F934F935F936F937F938F939F93AF930D
:1003A000BF93CF93EF93FF93C3B189B1C0FF0E9476
:1003B000F303C1FF0E94CD04C2FD0AC06091000199
:1003C0007091010180910201909103010E941B0430
:1003D000FF91EF91CF91BF91AF919F918F917F91BD
:1003E0006F915F914F913F912F910F900FBE0F90A2
:1003F0001F90189588E10E94530084E00E946100DC
:100400000E946F0054985C9A85B1876085B95F9AA5
:1004100084B1887F84B95798E8E6F0E080818160F4
:100420008083D89AEBE6F0E080818760808308952E
:1004300080919001089580918F010895809193019A
:1004400081111092930189B191E0282F207184FDD0
:1004500090E080919201891771F0809191018F5FF6
:1004600080939101843648F090939201211103C04A
:1004700081E08093930110929101809193010895FE
:100480001F920F920FB60F9211242F933F934F9309
:100490005F936F937F938F939F93AF93BF93CF930C
:1004A000DF93EF93FF93C0917800D0917900D695B8
:1004B000C795D695C7950E946B00843009F066C039
:1004C000C093900185E00E9461000E941E029091FD
:1004D0000401992309F463C08111109204018091F1
:1004E0008E018F5F80938E0190910401992309F40E
:1004F00071C0853160F110928E0180919001893C2C
:1005000008F454C080910001803F18F48F5F8093FD
:10051000000180918F01893C08F452C08091010153
:10052000803F18F48F5F80930101F89480E00E946F
:10053000880160910101809100010E94C20380E462
:100540000E94880189E091E00E947E017894609188
:1005500000017091010180910201909103010E94BC
:100560003C050E946F00FF91EF91DF91CF91BF9109
:10057000AF919F918F917F916F915F914F913F913B
:100580002F910F900FBE0F901F9018950E946B0037
:10059000853009F09ACFC0938F0184E094CF8823EF
:1005A00009F49DCF8FEF8093040199CF823308F037
:1005B000B0CF809100018B3008F4ABCF8150A7CF32
:1005C000823308F0B2CF809101018B3008F4ADCFB7
:1005D0008150A9CF853108F4BACF10928E01809155
:1005E0009001893C10F180910301803F18F48F5FE6
:1005F0008093030180918F01893CF8F08091020182
:10060000803F18F48F5F80930201F89480E00E948D
:10061000880160910201809103010E94C20380E47D
:100620000E9488018AE191E08FCF823318F7809190
:1006300003018B30F8F28150DBCF823330F78091A9
:1006400002018B3010F38150DECF0E941E0140E08A
:1006500060E08FEF0E9494010E9485010E949C013E
:100660000E94A90160910501709106018091070126
:10067000909108010C943C050F931F93CF93DF9347
:10068000082F8CE30E944401C7E0D0E010E0C801CD
:100690000C2E02C0959587950A94E2F780FD0CC058
:1006A00080E30E944401219790F78EE3DF91CF9180
:1006B0001F910F910C94440181E3F3CFEF92FF92CD
:1006C0001F93CF93DF93CDB7DEB760970FB6F89443
:1006D000DEBF0FBECDBF9C0110E08AE0E82EF12CFA
:1006E0002115310579F480E360960FB6F894DEBFEA
:1006F0000FBECDBFDF91CF911F91FF90EF900C9473
:1007000044019B01E1E0F0E0EC0FFD1FE10FF11D62
:10071000C901B7010E946F0580831F5F2A30310530
:1007200080F711110CC060960FB6F894DEBF0FBEB3
:10073000CDBFDF91CF911F91FF90EF9008951150A1
:10074000E1E0F0E0EC0FFD1FE10FF11D8081805D25
:100750000E944401E6CF482FFC0190E080E05AE07F
:100760002E2F241B261708F008957191589F900191
:10077000599F300D1124C901C097870F911D77FD36
:100780009A95EECFCF93DF93D82FC62F8091950106
:100790008D1781F0D093950180E00E9488018BE253
:1007A00091E00E947E0183E00E9488018D2F90E0FD
:1007B0000E945E03809194018C1791F0C093940184
:1007C00088E00E94880182E391E00E947E018BE034
:1007D0000E9488018C2F90E0DF91CF910C945E03F2
:1007E000DF91CF91089560E090E080E00E94780072
:1007F00060E081E090E00E94780080E00E94880143
:1008000089E391E00E947E0180E00E9488018AE4F1
:1008100091E00E947E012FE784E89EE12150804014
:100820009040E1F700C0000080E00E94880189E369
:1008300091E00C947E01CF92DF92EF92FF920F93A2
:100840001F93CF93DF936B017C0190E080E00E94C7
:100850008800C82FD0E0DC2FCC2781E090E00E94F8
:100860008800C82B8E01000F111F000F111F6C2D67
:10087000C80102960E9478006D2DC80103960E945F
:1008800078006E2DC80104960E9478006F2DC80173
:1008900005960E94780080E00E94880189E391E03B
:1008A0000E947E0180E00E94880189E591E00E941B
:1008B0007E01CE010E945E032FE784E89EE1215075
:1008C00080409040E1F700C0000080E00E94880175
:1008D00089E391E00E947E0121966D2F90E080E0F7
:1008E0000E9478006C2F81E090E0DF91CF911F9102
:1008F0000F91FF90EF90DF90CF900C947800DF92F3
:10090000EF92FF920F931F93CF93DF938C01EC0133
:10091000CC0FDD1FCC0FDD1FCE0102960E94880098
:10092000D82ECE0103960E948800E82ECE010496B0
:100930000E948800F82ECE0105960E948800C82FDC
:1009400080E00E94880189E391E00E947E0180E0BE
:100950000E94880184E691E00E947E01C8010E9405
:100960005E032FE784E89EE1215080409040E1F74C
:1009700000C0000080E00E94880189E391E00E94AD
:100980007E016D2D7E2D8F2D9C2FDF91CF911F919C
:100990000F91FF90EF90DF900895EF92FF920F93E9
:1009A0001F93CF93DF9390E080E00E948800C82FD0
:1009B000D0E0DC2FCC2781E090E00E948800C82B9B
:1009C00080E00E9488018EE691E00E947E0180E432
:1009D0000E9488018FE791E00E947E018C2F0E9487
:1009E0003C0387E891E00E947E0110E000E00C17D4
:1009F0001D0739F4DF91CF911F910F91FF90EF9078
:100A000008958BE00E94880178012FEFE21AF20A24
:100A1000C7010E945E0382E491E00E947E01C8014A
:100A20000E947F040E943C058FE996E821E08150F6
:100A300090402040E1F700C000008701D8CF62E17C
:100A40000E9463058D5F089562E10E9463058D5FDA
:100A50000C94B80162E10E9463058D5F0C94BA01A9
:100A600062E10E9463058D5F0C94BC0162E10E940B
:100A700063058D5F0C94BF011F93CF93DF93172FF6
:100A8000D82FC92F862F0E942405812F0E942A0566
:100A90008D2F0E9430058C2FDF91CF911F910C94E8
:100AA000360580E830E020E00FB6F89480936100CE
:100AB000209361000FBE0E94FA010E9425030E944C
:100AC0001E027894FFCF991B79E004C0991F9617F6
:100AD00008F0961B881F7A95C9F780950895AA1B80
:100AE000BB1B51E107C0AA1FBB1FA617B70710F019
:100AF000A61BB70B881F991F5A95A9F7809590954B
:0A0B0000BC01CD010895F894FFCF69
:100B0A007D7D7D7DFF878787872020204C4F574535
:100B1A0052204D4F4445202020002020205550507F
:100B2A004552204D4F444520202000583A2020208D
:100B3A002000593A20202020002020202020202098
:100B4A00202020202020202020004D656D6F727902
:100B5A0020636C6561726564005361766564207414
:100B6A006F3A2000726576697665643A2000657886
:100B7A0065637574696E673A202020202020006F13
:0E0B8A007574206F6620002073746570730010
:00000001FF
